{
  "transactions": [
    {
      "hash": "0x7fcacbce8cb67a9ddaafd9b36b3362ef41fbdb0e888746dfd365d3db1be9dca1",
      "transactionType": "CALL",
      "contractName": "LinkToken",
      "contractAddress": "0x779877A7B0D9E8603169DdbD7836e478b4624789",
      "function": "transferAndCall(address,uint256,bytes)",
      "arguments": [
        "0x8103B0A8A00be2DDC778e6e7eaa21791Cd364625",
        "3000000000000000000",
        "0x0000000000000000000000000000000000000000000000000000000000002869"
      ],
      "transaction": {
        "type": "0x02",
        "from": "0x0c81f606d5f0e77d8af4229e239d6307ab6aed9e",
        "to": "0x779877a7b0d9e8603169ddbd7836e478b4624789",
        "gas": "0x1b43f",
        "value": "0x0",
        "data": "0x4000aea00000000000000000000000008103b0a8a00be2ddc778e6e7eaa21791cd36462500000000000000000000000000000000000000000000000029a2241af62c0000000000000000000000000000000000000000000000000000000000000000006000000000000000000000000000000000000000000000000000000000000000200000000000000000000000000000000000000000000000000000000000002869",
        "nonce": "0x2ae",
        "accessList": []
      },
      "additionalContracts": [],
      "isFixedGasLimit": false
    }
  ],
  "receipts": [],
  "libraries": [],
  "pending": [
    "0x7fcacbce8cb67a9ddaafd9b36b3362ef41fbdb0e888746dfd365d3db1be9dca1"
  ],
  "returns": {},
  "timestamp": 1710871621,
  "chain": 11155111,
  "multi": false,
  "commit": "7408162"
}