{
  "transactions": [
    {
      "hash": "0x7fcacbce8cb67a9ddaafd9b36b3362ef41fbdb0e888746dfd365d3db1be9dca1",
      "transactionType": "CALL",
      "contractName": "LinkToken",
      "contractAddress": "0x779877A7B0D9E8603169DdbD7836e478b4624789",
      "function": "transferAndCall(address,uint256,bytes)",
      "arguments": [
        "0x8103B0A8A00be2DDC778e6e7eaa21791Cd364625",
        "3000000000000000000",
        "0x0000000000000000000000000000000000000000000000000000000000002869"
      ],
      "transaction": {
        "type": "0x02",
        "from": "0x0c81f606d5f0e77d8af4229e239d6307ab6aed9e",
        "to": "0x779877a7b0d9e8603169ddbd7836e478b4624789",
        "gas": "0x1b43f",
        "value": "0x0",
        "data": "0x4000aea00000000000000000000000008103b0a8a00be2ddc778e6e7eaa21791cd36462500000000000000000000000000000000000000000000000029a2241af62c0000000000000000000000000000000000000000000000000000000000000000006000000000000000000000000000000000000000000000000000000000000000200000000000000000000000000000000000000000000000000000000000002869",
        "nonce": "0x2ae",
        "accessList": []
      },
      "additionalContracts": [],
      "isFixedGasLimit": false
    }
  ],
  "receipts": [
    {
      "transactionHash": "0x7fcacbce8cb67a9ddaafd9b36b3362ef41fbdb0e888746dfd365d3db1be9dca1",
      "transactionIndex": "0x13",
      "blockHash": "0xf2854845e2ca57e9b94997f3cf8176e72ca5fc07b6c2da2dcbe09047d7d08fed",
      "blockNumber": "0x543712",
      "from": "0x0c81F606d5f0E77D8af4229e239d6307Ab6AEd9e",
      "to": "0x779877A7B0D9E8603169DdbD7836e478b4624789",
      "cumulativeGasUsed": "0xa1b99",
      "gasUsed": "0x12a4a",
      "contractAddress": null,
      "logs": [
        {
          "address": "0x779877A7B0D9E8603169DdbD7836e478b4624789",
          "topics": [
            "0xddf252ad1be2c89b69c2b068fc378daa952ba7f163c4a11628f55a4df523b3ef",
            "0x0000000000000000000000000c81f606d5f0e77d8af4229e239d6307ab6aed9e",
            "0x0000000000000000000000008103b0a8a00be2ddc778e6e7eaa21791cd364625"
          ],
          "data": "0x00000000000000000000000000000000000000000000000029a2241af62c0000",
          "blockHash": "0xf2854845e2ca57e9b94997f3cf8176e72ca5fc07b6c2da2dcbe09047d7d08fed",
          "blockNumber": "0x543712",
          "transactionHash": "0x7fcacbce8cb67a9ddaafd9b36b3362ef41fbdb0e888746dfd365d3db1be9dca1",
          "transactionIndex": "0x13",
          "logIndex": "0x3",
          "removed": false
        },
        {
          "address": "0x779877A7B0D9E8603169DdbD7836e478b4624789",
          "topics": [
            "0xe19260aff97b920c7df27010903aeb9c8d2be5d310a2c67824cf3f15396e4c16",
            "0x0000000000000000000000000c81f606d5f0e77d8af4229e239d6307ab6aed9e",
            "0x0000000000000000000000008103b0a8a00be2ddc778e6e7eaa21791cd364625"
          ],
          "data": "0x00000000000000000000000000000000000000000000000029a2241af62c0000000000000000000000000000000000000000000000000000000000000000004000000000000000000000000000000000000000000000000000000000000000200000000000000000000000000000000000000000000000000000000000002869",
          "blockHash": "0xf2854845e2ca57e9b94997f3cf8176e72ca5fc07b6c2da2dcbe09047d7d08fed",
          "blockNumber": "0x543712",
          "transactionHash": "0x7fcacbce8cb67a9ddaafd9b36b3362ef41fbdb0e888746dfd365d3db1be9dca1",
          "transactionIndex": "0x13",
          "logIndex": "0x4",
          "removed": false
        },
        {
          "address": "0x8103B0A8A00be2DDC778e6e7eaa21791Cd364625",
          "topics": [
            "0xd39ec07f4e209f627a4c427971473820dc129761ba28de8906bd56f57101d4f8",
            "0x0000000000000000000000000000000000000000000000000000000000002869"
          ],
          "data": "0x000000000000000000000000000000000000000000000000000000000000000000000000000000000000000000000000000000000000000029a2241af62c0000",
          "blockHash": "0xf2854845e2ca57e9b94997f3cf8176e72ca5fc07b6c2da2dcbe09047d7d08fed",
          "blockNumber": "0x543712",
          "transactionHash": "0x7fcacbce8cb67a9ddaafd9b36b3362ef41fbdb0e888746dfd365d3db1be9dca1",
          "transactionIndex": "0x13",
          "logIndex": "0x5",
          "removed": false
        }
      ],
      "status": "0x1",
      "logsBloom": "0x0000001400000000000000000000000000000000400000020000000002000000000000000000800000000000000000000000000000000000000000000000000000000000000000000000000800000000000000000000000000002020000000000000000000000000000000000000000000000000400000000000001000000000000000000c000020000000200000800010000020000000000000000000000000000000000000000000000000000000000000000000000000000400000000000000000002200000000000000000000000000000000000000100000000000000000200000000000000080000000000000000000000000000000000000000000000",
      "type": "0x2",
      "effectiveGasPrice": "0xbd8569bc"
    }
  ],
  "libraries": [],
  "pending": [],
  "returns": {},
  "timestamp": 1710871634,
  "chain": 11155111,
  "multi": false,
  "commit": "7408162"
}